{
  "_format": "hh-sol-artifact-1",
  "contractName": "Reward",
  "sourceName": "contracts/Reward.sol",
  "abi": [
    {
      "inputs": [],
      "stateMutability": "nonpayable",
      "type": "constructor"
    },
    {
      "anonymous": false,
      "inputs": [
        {
          "indexed": true,
          "internalType": "address",
          "name": "owner",
          "type": "address"
        },
        {
          "indexed": true,
          "internalType": "address",
          "name": "approved",
          "type": "address"
        },
        {
          "indexed": true,
          "internalType": "uint256",
          "name": "tokenId",
          "type": "uint256"
        }
      ],
      "name": "Approval",
      "type": "event"
    },
    {
      "anonymous": false,
      "inputs": [
        {
          "indexed": true,
          "internalType": "address",
          "name": "owner",
          "type": "address"
        },
        {
          "indexed": true,
          "internalType": "address",
          "name": "operator",
          "type": "address"
        },
        {
          "indexed": false,
          "internalType": "bool",
          "name": "approved",
          "type": "bool"
        }
      ],
      "name": "ApprovalForAll",
      "type": "event"
    },
    {
      "anonymous": false,
      "inputs": [
        {
          "indexed": false,
          "internalType": "uint256",
          "name": "_fromTokenId",
          "type": "uint256"
        },
        {
          "indexed": false,
          "internalType": "uint256",
          "name": "_toTokenId",
          "type": "uint256"
        }
      ],
      "name": "BatchMetadataUpdate",
      "type": "event"
    },
    {
      "anonymous": false,
      "inputs": [
        {
          "indexed": false,
          "internalType": "uint256",
          "name": "_tokenId",
          "type": "uint256"
        }
      ],
      "name": "MetadataUpdate",
      "type": "event"
    },
    {
      "anonymous": false,
      "inputs": [
        {
          "indexed": true,
          "internalType": "address",
          "name": "previousOwner",
          "type": "address"
        },
        {
          "indexed": true,
          "internalType": "address",
          "name": "newOwner",
          "type": "address"
        }
      ],
      "name": "OwnershipTransferred",
      "type": "event"
    },
    {
      "anonymous": false,
      "inputs": [
        {
          "indexed": true,
          "internalType": "address",
          "name": "from",
          "type": "address"
        },
        {
          "indexed": true,
          "internalType": "address",
          "name": "to",
          "type": "address"
        },
        {
          "indexed": true,
          "internalType": "uint256",
          "name": "tokenId",
          "type": "uint256"
        }
      ],
      "name": "Transfer",
      "type": "event"
    },
    {
      "inputs": [
        {
          "internalType": "address",
          "name": "to",
          "type": "address"
        },
        {
          "internalType": "uint256",
          "name": "tokenId",
          "type": "uint256"
        }
      ],
      "name": "approve",
      "outputs": [],
      "stateMutability": "nonpayable",
      "type": "function"
    },
    {
      "inputs": [
        {
          "internalType": "address",
          "name": "owner",
          "type": "address"
        }
      ],
      "name": "balanceOf",
      "outputs": [
        {
          "internalType": "uint256",
          "name": "",
          "type": "uint256"
        }
      ],
      "stateMutability": "view",
      "type": "function"
    },
    {
      "inputs": [
        {
          "internalType": "uint256",
          "name": "tokenId",
          "type": "uint256"
        }
      ],
      "name": "burn",
      "outputs": [],
      "stateMutability": "nonpayable",
      "type": "function"
    },
    {
      "inputs": [
        {
          "internalType": "uint256",
          "name": "tokenId",
          "type": "uint256"
        }
      ],
      "name": "getApproved",
      "outputs": [
        {
          "internalType": "address",
          "name": "",
          "type": "address"
        }
      ],
      "stateMutability": "view",
      "type": "function"
    },
    {
      "inputs": [
        {
          "internalType": "address",
          "name": "owner",
          "type": "address"
        },
        {
          "internalType": "address",
          "name": "operator",
          "type": "address"
        }
      ],
      "name": "isApprovedForAll",
      "outputs": [
        {
          "internalType": "bool",
          "name": "",
          "type": "bool"
        }
      ],
      "stateMutability": "view",
      "type": "function"
    },
    {
      "inputs": [
        {
          "internalType": "address",
          "name": "to",
          "type": "address"
        },
        {
          "internalType": "string",
          "name": "tokenURI",
          "type": "string"
        }
      ],
      "name": "mintReward",
      "outputs": [
        {
          "internalType": "uint256",
          "name": "",
          "type": "uint256"
        }
      ],
      "stateMutability": "nonpayable",
      "type": "function"
    },
    {
      "inputs": [],
      "name": "name",
      "outputs": [
        {
          "internalType": "string",
          "name": "",
          "type": "string"
        }
      ],
      "stateMutability": "view",
      "type": "function"
    },
    {
      "inputs": [],
      "name": "owner",
      "outputs": [
        {
          "internalType": "address",
          "name": "",
          "type": "address"
        }
      ],
      "stateMutability": "view",
      "type": "function"
    },
    {
      "inputs": [
        {
          "internalType": "uint256",
          "name": "tokenId",
          "type": "uint256"
        }
      ],
      "name": "ownerOf",
      "outputs": [
        {
          "internalType": "address",
          "name": "",
          "type": "address"
        }
      ],
      "stateMutability": "view",
      "type": "function"
    },
    {
      "inputs": [],
      "name": "renounceOwnership",
      "outputs": [],
      "stateMutability": "nonpayable",
      "type": "function"
    },
    {
      "inputs": [
        {
          "internalType": "address",
          "name": "from",
          "type": "address"
        },
        {
          "internalType": "address",
          "name": "to",
          "type": "address"
        },
        {
          "internalType": "uint256",
          "name": "tokenId",
          "type": "uint256"
        }
      ],
      "name": "safeTransferFrom",
      "outputs": [],
      "stateMutability": "nonpayable",
      "type": "function"
    },
    {
      "inputs": [
        {
          "internalType": "address",
          "name": "from",
          "type": "address"
        },
        {
          "internalType": "address",
          "name": "to",
          "type": "address"
        },
        {
          "internalType": "uint256",
          "name": "tokenId",
          "type": "uint256"
        },
        {
          "internalType": "bytes",
          "name": "data",
          "type": "bytes"
        }
      ],
      "name": "safeTransferFrom",
      "outputs": [],
      "stateMutability": "nonpayable",
      "type": "function"
    },
    {
      "inputs": [
        {
          "internalType": "address",
          "name": "operator",
          "type": "address"
        },
        {
          "internalType": "bool",
          "name": "approved",
          "type": "bool"
        }
      ],
      "name": "setApprovalForAll",
      "outputs": [],
      "stateMutability": "nonpayable",
      "type": "function"
    },
    {
      "inputs": [
        {
          "internalType": "bytes4",
          "name": "interfaceId",
          "type": "bytes4"
        }
      ],
      "name": "supportsInterface",
      "outputs": [
        {
          "internalType": "bool",
          "name": "",
          "type": "bool"
        }
      ],
      "stateMutability": "view",
      "type": "function"
    },
    {
      "inputs": [],
      "name": "symbol",
      "outputs": [
        {
          "internalType": "string",
          "name": "",
          "type": "string"
        }
      ],
      "stateMutability": "view",
      "type": "function"
    },
    {
      "inputs": [
        {
          "internalType": "uint256",
          "name": "tokenId",
          "type": "uint256"
        }
      ],
      "name": "tokenURI",
      "outputs": [
        {
          "internalType": "string",
          "name": "",
          "type": "string"
        }
      ],
      "stateMutability": "view",
      "type": "function"
    },
    {
      "inputs": [
        {
          "internalType": "address",
          "name": "from",
          "type": "address"
        },
        {
          "internalType": "address",
          "name": "to",
          "type": "address"
        },
        {
          "internalType": "uint256",
          "name": "tokenId",
          "type": "uint256"
        }
      ],
      "name": "transferFrom",
      "outputs": [],
      "stateMutability": "nonpayable",
      "type": "function"
    },
    {
      "inputs": [
        {
          "internalType": "address",
          "name": "newOwner",
          "type": "address"
        }
      ],
      "name": "transferOwnership",
      "outputs": [],
      "stateMutability": "nonpayable",
      "type": "function"
    }
  ],
  "bytecode": "0x60806040523480156200001157600080fd5b506040518060400160405280600b81526020017f526577617264546f6b656e0000000000000000000000000000000000000000008152506040518060400160405280600381526020017f52544e000000000000000000000000000000000000000000000000000000000081525081600090816200008f919062000412565b508060019081620000a1919062000412565b505050620000c4620000b8620000ca60201b60201c565b620000d260201b60201c565b620004f9565b600033905090565b6000600760009054906101000a900473ffffffffffffffffffffffffffffffffffffffff16905081600760006101000a81548173ffffffffffffffffffffffffffffffffffffffff021916908373ffffffffffffffffffffffffffffffffffffffff1602179055508173ffffffffffffffffffffffffffffffffffffffff168173ffffffffffffffffffffffffffffffffffffffff167f8be0079c531659141344cd1fd0a4f28419497f9722a3daafe3b4186f6b6457e060405160405180910390a35050565b600081519050919050565b7f4e487b7100000000000000000000000000000000000000000000000000000000600052604160045260246000fd5b7f4e487b7100000000000000000000000000000000000000000000000000000000600052602260045260246000fd5b600060028204905060018216806200021a57607f821691505b60208210810362000230576200022f620001d2565b5b50919050565b60008190508160005260206000209050919050565b60006020601f8301049050919050565b600082821b905092915050565b6000600883026200029a7fffffffffffffffffffffffffffffffffffffffffffffffffffffffffffffffff826200025b565b620002a686836200025b565b95508019841693508086168417925050509392505050565b6000819050919050565b6000819050919050565b6000620002f3620002ed620002e784620002be565b620002c8565b620002be565b9050919050565b6000819050919050565b6200030f83620002d2565b620003276200031e82620002fa565b84845462000268565b825550505050565b600090565b6200033e6200032f565b6200034b81848462000304565b505050565b5b8181101562000373576200036760008262000334565b60018101905062000351565b5050565b601f821115620003c2576200038c8162000236565b62000397846200024b565b81016020851015620003a7578190505b620003bf620003b6856200024b565b83018262000350565b50505b505050565b600082821c905092915050565b6000620003e760001984600802620003c7565b1980831691505092915050565b6000620004028383620003d4565b9150826002028217905092915050565b6200041d8262000198565b67ffffffffffffffff811115620004395762000438620001a3565b5b62000445825462000201565b6200045282828562000377565b600060209050601f8311600181146200048a576000841562000475578287015190505b620004818582620003f4565b865550620004f1565b601f1984166200049a8662000236565b60005b82811015620004c4578489015182556001820191506020850194506020810190506200049d565b86831015620004e45784890151620004e0601f891682620003d4565b8355505b6001600288020188555050505b505050505050565b61319580620005096000396000f3fe608060405234801561001057600080fd5b50600436106101165760003560e01c806370a08231116100a2578063a22cb46511610071578063a22cb465146102df578063b88d4fde146102fb578063c87b56dd14610317578063e985e9c514610347578063f2fde38b1461037757610116565b806370a0823114610269578063715018a6146102995780638da5cb5b146102a357806395d89b41146102c157610116565b806323b872dd116100e957806323b872dd146101b557806342842e0e146101d157806342966c68146101ed5780636352211e146102095780636cdb6cf31461023957610116565b806301ffc9a71461011b57806306fdde031461014b578063081812fc14610169578063095ea7b314610199575b600080fd5b61013560048036038101906101309190611ea3565b610393565b6040516101429190611eeb565b60405180910390f35b6101536103f4565b6040516101609190611f96565b60405180910390f35b610183600480360381019061017e9190611fee565b610486565b604051610190919061205c565b60405180910390f35b6101b360048036038101906101ae91906120a3565b6104cc565b005b6101cf60048036038101906101ca91906120e3565b6105e3565b005b6101eb60048036038101906101e691906120e3565b610643565b005b61020760048036038101906102029190611fee565b610663565b005b610223600480360381019061021e9190611fee565b6106bf565b604051610230919061205c565b60405180910390f35b610253600480360381019061024e919061226b565b610745565b60405161026091906122d6565b60405180910390f35b610283600480360381019061027e91906122f1565b61078a565b60405161029091906122d6565b60405180910390f35b6102a1610841565b005b6102ab610855565b6040516102b8919061205c565b60405180910390f35b6102c961087f565b6040516102d69190611f96565b60405180910390f35b6102f960048036038101906102f4919061234a565b610911565b005b6103156004803603810190610310919061242b565b610927565b005b610331600480360381019061032c9190611fee565b610989565b60405161033e9190611f96565b60405180910390f35b610361600480360381019061035c91906124ae565b610a9b565b60405161036e9190611eeb565b60405180910390f35b610391600480360381019061038c91906122f1565b610b2f565b005b6000634906490660e01b7bffffffffffffffffffffffffffffffffffffffffffffffffffffffff1916827bffffffffffffffffffffffffffffffffffffffffffffffffffffffff191614806103ed57506103ec82610bb2565b5b9050919050565b6060600080546104039061251d565b80601f016020809104026020016040519081016040528092919081815260200182805461042f9061251d565b801561047c5780601f106104515761010080835404028352916020019161047c565b820191906000526020600020905b81548152906001019060200180831161045f57829003601f168201915b5050505050905090565b600061049182610c94565b6004600083815260200190815260200160002060009054906101000a900473ffffffffffffffffffffffffffffffffffffffff169050919050565b60006104d7826106bf565b90508073ffffffffffffffffffffffffffffffffffffffff168373ffffffffffffffffffffffffffffffffffffffff1603610547576040517f08c379a000000000000000000000000000000000000000000000000000000000815260040161053e906125c0565b60405180910390fd5b8073ffffffffffffffffffffffffffffffffffffffff16610566610cdf565b73ffffffffffffffffffffffffffffffffffffffff16148061059557506105948161058f610cdf565b610a9b565b5b6105d4576040517f08c379a00000000000000000000000000000000000000000000000000000000081526004016105cb90612652565b60405180910390fd5b6105de8383610ce7565b505050565b6105f46105ee610cdf565b82610da0565b610633576040517f08c379a000000000000000000000000000000000000000000000000000000000815260040161062a906126e4565b60405180910390fd5b61063e838383610e35565b505050565b61065e83838360405180602001604052806000815250610927565b505050565b61067461066e610cdf565b82610da0565b6106b3576040517f08c379a00000000000000000000000000000000000000000000000000000000081526004016106aa90612750565b60405180910390fd5b6106bc8161112e565b50565b6000806106cb83611181565b9050600073ffffffffffffffffffffffffffffffffffffffff168173ffffffffffffffffffffffffffffffffffffffff160361073c576040517f08c379a0000000000000000000000000000000000000000000000000000000008152600401610733906127bc565b60405180910390fd5b80915050919050565b600061074f6111be565b600860008154809291906107629061280b565b91905055506107738360085461123c565b61077f60085483611459565b600854905092915050565b60008073ffffffffffffffffffffffffffffffffffffffff168273ffffffffffffffffffffffffffffffffffffffff16036107fa576040517f08c379a00000000000000000000000000000000000000000000000000000000081526004016107f1906128c5565b60405180910390fd5b600360008373ffffffffffffffffffffffffffffffffffffffff1673ffffffffffffffffffffffffffffffffffffffff168152602001908152602001600020549050919050565b6108496111be565b61085360006114fd565b565b6000600760009054906101000a900473ffffffffffffffffffffffffffffffffffffffff16905090565b60606001805461088e9061251d565b80601f01602080910402602001604051908101604052809291908181526020018280546108ba9061251d565b80156109075780601f106108dc57610100808354040283529160200191610907565b820191906000526020600020905b8154815290600101906020018083116108ea57829003601f168201915b5050505050905090565b61092361091c610cdf565b83836115c3565b5050565b610938610932610cdf565b83610da0565b610977576040517f08c379a000000000000000000000000000000000000000000000000000000000815260040161096e906126e4565b60405180910390fd5b6109838484848461172f565b50505050565b606061099482610c94565b60006006600084815260200190815260200160002080546109b49061251d565b80601f01602080910402602001604051908101604052809291908181526020018280546109e09061251d565b8015610a2d5780601f10610a0257610100808354040283529160200191610a2d565b820191906000526020600020905b815481529060010190602001808311610a1057829003601f168201915b505050505090506000610a3e61178b565b90506000815103610a53578192505050610a96565b600082511115610a88578082604051602001610a70929190612921565b60405160208183030381529060405292505050610a96565b610a91846117a2565b925050505b919050565b6000600560008473ffffffffffffffffffffffffffffffffffffffff1673ffffffffffffffffffffffffffffffffffffffff16815260200190815260200160002060008373ffffffffffffffffffffffffffffffffffffffff1673ffffffffffffffffffffffffffffffffffffffff16815260200190815260200160002060009054906101000a900460ff16905092915050565b610b376111be565b600073ffffffffffffffffffffffffffffffffffffffff168173ffffffffffffffffffffffffffffffffffffffff1603610ba6576040517f08c379a0000000000000000000000000000000000000000000000000000000008152600401610b9d906129b7565b60405180910390fd5b610baf816114fd565b50565b60007f80ac58cd000000000000000000000000000000000000000000000000000000007bffffffffffffffffffffffffffffffffffffffffffffffffffffffff1916827bffffffffffffffffffffffffffffffffffffffffffffffffffffffff19161480610c7d57507f5b5e139f000000000000000000000000000000000000000000000000000000007bffffffffffffffffffffffffffffffffffffffffffffffffffffffff1916827bffffffffffffffffffffffffffffffffffffffffffffffffffffffff1916145b80610c8d5750610c8c8261180a565b5b9050919050565b610c9d81611874565b610cdc576040517f08c379a0000000000000000000000000000000000000000000000000000000008152600401610cd3906127bc565b60405180910390fd5b50565b600033905090565b816004600083815260200190815260200160002060006101000a81548173ffffffffffffffffffffffffffffffffffffffff021916908373ffffffffffffffffffffffffffffffffffffffff160217905550808273ffffffffffffffffffffffffffffffffffffffff16610d5a836106bf565b73ffffffffffffffffffffffffffffffffffffffff167f8c5be1e5ebec7d5bd14f71427d1e84f3dd0314c0f7b2291e5b200ac8c7c3b92560405160405180910390a45050565b600080610dac836106bf565b90508073ffffffffffffffffffffffffffffffffffffffff168473ffffffffffffffffffffffffffffffffffffffff161480610dee5750610ded8185610a9b565b5b80610e2c57508373ffffffffffffffffffffffffffffffffffffffff16610e1484610486565b73ffffffffffffffffffffffffffffffffffffffff16145b91505092915050565b8273ffffffffffffffffffffffffffffffffffffffff16610e55826106bf565b73ffffffffffffffffffffffffffffffffffffffff1614610eab576040517f08c379a0000000000000000000000000000000000000000000000000000000008152600401610ea290612a49565b60405180910390fd5b600073ffffffffffffffffffffffffffffffffffffffff168273ffffffffffffffffffffffffffffffffffffffff1603610f1a576040517f08c379a0000000000000000000000000000000000000000000000000000000008152600401610f1190612adb565b60405180910390fd5b610f2783838360016118b5565b8273ffffffffffffffffffffffffffffffffffffffff16610f47826106bf565b73ffffffffffffffffffffffffffffffffffffffff1614610f9d576040517f08c379a0000000000000000000000000000000000000000000000000000000008152600401610f9490612a49565b60405180910390fd5b6004600082815260200190815260200160002060006101000a81549073ffffffffffffffffffffffffffffffffffffffff02191690556001600360008573ffffffffffffffffffffffffffffffffffffffff1673ffffffffffffffffffffffffffffffffffffffff168152602001908152602001600020600082825403925050819055506001600360008473ffffffffffffffffffffffffffffffffffffffff1673ffffffffffffffffffffffffffffffffffffffff16815260200190815260200160002060008282540192505081905550816002600083815260200190815260200160002060006101000a81548173ffffffffffffffffffffffffffffffffffffffff021916908373ffffffffffffffffffffffffffffffffffffffff160217905550808273ffffffffffffffffffffffffffffffffffffffff168473ffffffffffffffffffffffffffffffffffffffff167fddf252ad1be2c89b69c2b068fc378daa952ba7f163c4a11628f55a4df523b3ef60405160405180910390a461112983838360016118bb565b505050565b611137816118c1565b60006006600083815260200190815260200160002080546111579061251d565b90501461117e5760066000828152602001908152602001600020600061117d9190611dda565b5b50565b60006002600083815260200190815260200160002060009054906101000a900473ffffffffffffffffffffffffffffffffffffffff169050919050565b6111c6610cdf565b73ffffffffffffffffffffffffffffffffffffffff166111e4610855565b73ffffffffffffffffffffffffffffffffffffffff161461123a576040517f08c379a000000000000000000000000000000000000000000000000000000000815260040161123190612b47565b60405180910390fd5b565b600073ffffffffffffffffffffffffffffffffffffffff168273ffffffffffffffffffffffffffffffffffffffff16036112ab576040517f08c379a00000000000000000000000000000000000000000000000000000000081526004016112a290612bb3565b60405180910390fd5b6112b481611874565b156112f4576040517f08c379a00000000000000000000000000000000000000000000000000000000081526004016112eb90612c1f565b60405180910390fd5b6113026000838360016118b5565b61130b81611874565b1561134b576040517f08c379a000000000000000000000000000000000000000000000000000000000815260040161134290612c1f565b60405180910390fd5b6001600360008473ffffffffffffffffffffffffffffffffffffffff1673ffffffffffffffffffffffffffffffffffffffff16815260200190815260200160002060008282540192505081905550816002600083815260200190815260200160002060006101000a81548173ffffffffffffffffffffffffffffffffffffffff021916908373ffffffffffffffffffffffffffffffffffffffff160217905550808273ffffffffffffffffffffffffffffffffffffffff16600073ffffffffffffffffffffffffffffffffffffffff167fddf252ad1be2c89b69c2b068fc378daa952ba7f163c4a11628f55a4df523b3ef60405160405180910390a46114556000838360016118bb565b5050565b61146282611874565b6114a1576040517f08c379a000000000000000000000000000000000000000000000000000000000815260040161149890612cb1565b60405180910390fd5b806006600084815260200190815260200160002090816114c19190612e7d565b507ff8e1a15aba9398e019f0b49df1a4fde98ee17ae345cb5f6b5e2c27f5033e8ce7826040516114f191906122d6565b60405180910390a15050565b6000600760009054906101000a900473ffffffffffffffffffffffffffffffffffffffff16905081600760006101000a81548173ffffffffffffffffffffffffffffffffffffffff021916908373ffffffffffffffffffffffffffffffffffffffff1602179055508173ffffffffffffffffffffffffffffffffffffffff168173ffffffffffffffffffffffffffffffffffffffff167f8be0079c531659141344cd1fd0a4f28419497f9722a3daafe3b4186f6b6457e060405160405180910390a35050565b8173ffffffffffffffffffffffffffffffffffffffff168373ffffffffffffffffffffffffffffffffffffffff1603611631576040517f08c379a000000000000000000000000000000000000000000000000000000000815260040161162890612f9b565b60405180910390fd5b80600560008573ffffffffffffffffffffffffffffffffffffffff1673ffffffffffffffffffffffffffffffffffffffff16815260200190815260200160002060008473ffffffffffffffffffffffffffffffffffffffff1673ffffffffffffffffffffffffffffffffffffffff16815260200190815260200160002060006101000a81548160ff0219169083151502179055508173ffffffffffffffffffffffffffffffffffffffff168373ffffffffffffffffffffffffffffffffffffffff167f17307eab39ab6107e8899845ad3d59bd9653f200f220920489ca2b5937696c31836040516117229190611eeb565b60405180910390a3505050565b61173a848484610e35565b61174684848484611a0f565b611785576040517f08c379a000000000000000000000000000000000000000000000000000000000815260040161177c9061302d565b60405180910390fd5b50505050565b606060405180602001604052806000815250905090565b60606117ad82610c94565b60006117b761178b565b905060008151116117d75760405180602001604052806000815250611802565b806117e184611b96565b6040516020016117f2929190612921565b6040516020818303038152906040525b915050919050565b60007f01ffc9a7000000000000000000000000000000000000000000000000000000007bffffffffffffffffffffffffffffffffffffffffffffffffffffffff1916827bffffffffffffffffffffffffffffffffffffffffffffffffffffffff1916149050919050565b60008073ffffffffffffffffffffffffffffffffffffffff1661189683611181565b73ffffffffffffffffffffffffffffffffffffffff1614159050919050565b50505050565b50505050565b60006118cc826106bf565b90506118dc8160008460016118b5565b6118e5826106bf565b90506004600083815260200190815260200160002060006101000a81549073ffffffffffffffffffffffffffffffffffffffff02191690556001600360008373ffffffffffffffffffffffffffffffffffffffff1673ffffffffffffffffffffffffffffffffffffffff168152602001908152602001600020600082825403925050819055506002600083815260200190815260200160002060006101000a81549073ffffffffffffffffffffffffffffffffffffffff021916905581600073ffffffffffffffffffffffffffffffffffffffff168273ffffffffffffffffffffffffffffffffffffffff167fddf252ad1be2c89b69c2b068fc378daa952ba7f163c4a11628f55a4df523b3ef60405160405180910390a4611a0b8160008460016118bb565b5050565b6000611a308473ffffffffffffffffffffffffffffffffffffffff16611c64565b15611b89578373ffffffffffffffffffffffffffffffffffffffff1663150b7a02611a59610cdf565b8786866040518563ffffffff1660e01b8152600401611a7b94939291906130a2565b6020604051808303816000875af1925050508015611ab757506040513d601f19601f82011682018060405250810190611ab49190613103565b60015b611b39573d8060008114611ae7576040519150601f19603f3d011682016040523d82523d6000602084013e611aec565b606091505b506000815103611b31576040517f08c379a0000000000000000000000000000000000000000000000000000000008152600401611b289061302d565b60405180910390fd5b805181602001fd5b63150b7a0260e01b7bffffffffffffffffffffffffffffffffffffffffffffffffffffffff1916817bffffffffffffffffffffffffffffffffffffffffffffffffffffffff191614915050611b8e565b600190505b949350505050565b606060006001611ba584611c87565b01905060008167ffffffffffffffff811115611bc457611bc3612140565b5b6040519080825280601f01601f191660200182016040528015611bf65781602001600182028036833780820191505090505b509050600082602001820190505b600115611c59578080600190039150507f3031323334353637383961626364656600000000000000000000000000000000600a86061a8153600a8581611c4d57611c4c613130565b5b04945060008503611c04575b819350505050919050565b6000808273ffffffffffffffffffffffffffffffffffffffff163b119050919050565b600080600090507a184f03e93ff9f4daa797ed6e38ed64bf6a1f0100000000000000008310611ce5577a184f03e93ff9f4daa797ed6e38ed64bf6a1f0100000000000000008381611cdb57611cda613130565b5b0492506040810190505b6d04ee2d6d415b85acef81000000008310611d22576d04ee2d6d415b85acef81000000008381611d1857611d17613130565b5b0492506020810190505b662386f26fc100008310611d5157662386f26fc100008381611d4757611d46613130565b5b0492506010810190505b6305f5e1008310611d7a576305f5e1008381611d7057611d6f613130565b5b0492506008810190505b6127108310611d9f576127108381611d9557611d94613130565b5b0492506004810190505b60648310611dc25760648381611db857611db7613130565b5b0492506002810190505b600a8310611dd1576001810190505b80915050919050565b508054611de69061251d565b6000825580601f10611df85750611e17565b601f016020900490600052602060002090810190611e169190611e1a565b5b50565b5b80821115611e33576000816000905550600101611e1b565b5090565b6000604051905090565b600080fd5b600080fd5b60007fffffffff0000000000000000000000000000000000000000000000000000000082169050919050565b611e8081611e4b565b8114611e8b57600080fd5b50565b600081359050611e9d81611e77565b92915050565b600060208284031215611eb957611eb8611e41565b5b6000611ec784828501611e8e565b91505092915050565b60008115159050919050565b611ee581611ed0565b82525050565b6000602082019050611f006000830184611edc565b92915050565b600081519050919050565b600082825260208201905092915050565b60005b83811015611f40578082015181840152602081019050611f25565b60008484015250505050565b6000601f19601f8301169050919050565b6000611f6882611f06565b611f728185611f11565b9350611f82818560208601611f22565b611f8b81611f4c565b840191505092915050565b60006020820190508181036000830152611fb08184611f5d565b905092915050565b6000819050919050565b611fcb81611fb8565b8114611fd657600080fd5b50565b600081359050611fe881611fc2565b92915050565b60006020828403121561200457612003611e41565b5b600061201284828501611fd9565b91505092915050565b600073ffffffffffffffffffffffffffffffffffffffff82169050919050565b60006120468261201b565b9050919050565b6120568161203b565b82525050565b6000602082019050612071600083018461204d565b92915050565b6120808161203b565b811461208b57600080fd5b50565b60008135905061209d81612077565b92915050565b600080604083850312156120ba576120b9611e41565b5b60006120c88582860161208e565b92505060206120d985828601611fd9565b9150509250929050565b6000806000606084860312156120fc576120fb611e41565b5b600061210a8682870161208e565b935050602061211b8682870161208e565b925050604061212c86828701611fd9565b9150509250925092565b600080fd5b600080fd5b7f4e487b7100000000000000000000000000000000000000000000000000000000600052604160045260246000fd5b61217882611f4c565b810181811067ffffffffffffffff8211171561219757612196612140565b5b80604052505050565b60006121aa611e37565b90506121b6828261216f565b919050565b600067ffffffffffffffff8211156121d6576121d5612140565b5b6121df82611f4c565b9050602081019050919050565b82818337600083830152505050565b600061220e612209846121bb565b6121a0565b90508281526020810184848401111561222a5761222961213b565b5b6122358482856121ec565b509392505050565b600082601f83011261225257612251612136565b5b81356122628482602086016121fb565b91505092915050565b6000806040838503121561228257612281611e41565b5b60006122908582860161208e565b925050602083013567ffffffffffffffff8111156122b1576122b0611e46565b5b6122bd8582860161223d565b9150509250929050565b6122d081611fb8565b82525050565b60006020820190506122eb60008301846122c7565b92915050565b60006020828403121561230757612306611e41565b5b60006123158482850161208e565b91505092915050565b61232781611ed0565b811461233257600080fd5b50565b6000813590506123448161231e565b92915050565b6000806040838503121561236157612360611e41565b5b600061236f8582860161208e565b925050602061238085828601612335565b9150509250929050565b600067ffffffffffffffff8211156123a5576123a4612140565b5b6123ae82611f4c565b9050602081019050919050565b60006123ce6123c98461238a565b6121a0565b9050828152602081018484840111156123ea576123e961213b565b5b6123f58482856121ec565b509392505050565b600082601f83011261241257612411612136565b5b81356124228482602086016123bb565b91505092915050565b6000806000806080858703121561244557612444611e41565b5b60006124538782880161208e565b94505060206124648782880161208e565b935050604061247587828801611fd9565b925050606085013567ffffffffffffffff81111561249657612495611e46565b5b6124a2878288016123fd565b91505092959194509250565b600080604083850312156124c5576124c4611e41565b5b60006124d38582860161208e565b92505060206124e48582860161208e565b9150509250929050565b7f4e487b7100000000000000000000000000000000000000000000000000000000600052602260045260246000fd5b6000600282049050600182168061253557607f821691505b602082108103612548576125476124ee565b5b50919050565b7f4552433732313a20617070726f76616c20746f2063757272656e74206f776e6560008201527f7200000000000000000000000000000000000000000000000000000000000000602082015250565b60006125aa602183611f11565b91506125b58261254e565b604082019050919050565b600060208201905081810360008301526125d98161259d565b9050919050565b7f4552433732313a20617070726f76652063616c6c6572206973206e6f7420746f60008201527f6b656e206f776e6572206f7220617070726f76656420666f7220616c6c000000602082015250565b600061263c603d83611f11565b9150612647826125e0565b604082019050919050565b6000602082019050818103600083015261266b8161262f565b9050919050565b7f4552433732313a2063616c6c6572206973206e6f7420746f6b656e206f776e6560008201527f72206f7220617070726f76656400000000000000000000000000000000000000602082015250565b60006126ce602d83611f11565b91506126d982612672565b604082019050919050565b600060208201905081810360008301526126fd816126c1565b9050919050565b7f43616c6c6572206973206e6f74206f776e6572206e6f7220617070726f766564600082015250565b600061273a602083611f11565b915061274582612704565b602082019050919050565b600060208201905081810360008301526127698161272d565b9050919050565b7f4552433732313a20696e76616c696420746f6b656e2049440000000000000000600082015250565b60006127a6601883611f11565b91506127b182612770565b602082019050919050565b600060208201905081810360008301526127d581612799565b9050919050565b7f4e487b7100000000000000000000000000000000000000000000000000000000600052601160045260246000fd5b600061281682611fb8565b91507fffffffffffffffffffffffffffffffffffffffffffffffffffffffffffffffff8203612848576128476127dc565b5b600182019050919050565b7f4552433732313a2061646472657373207a65726f206973206e6f74206120766160008201527f6c6964206f776e65720000000000000000000000000000000000000000000000602082015250565b60006128af602983611f11565b91506128ba82612853565b604082019050919050565b600060208201905081810360008301526128de816128a2565b9050919050565b600081905092915050565b60006128fb82611f06565b61290581856128e5565b9350612915818560208601611f22565b80840191505092915050565b600061292d82856128f0565b915061293982846128f0565b91508190509392505050565b7f4f776e61626c653a206e6577206f776e657220697320746865207a65726f206160008201527f6464726573730000000000000000000000000000000000000000000000000000602082015250565b60006129a1602683611f11565b91506129ac82612945565b604082019050919050565b600060208201905081810360008301526129d081612994565b9050919050565b7f4552433732313a207472616e736665722066726f6d20696e636f72726563742060008201527f6f776e6572000000000000000000000000000000000000000000000000000000602082015250565b6000612a33602583611f11565b9150612a3e826129d7565b604082019050919050565b60006020820190508181036000830152612a6281612a26565b9050919050565b7f4552433732313a207472616e7366657220746f20746865207a65726f2061646460008201527f7265737300000000000000000000000000000000000000000000000000000000602082015250565b6000612ac5602483611f11565b9150612ad082612a69565b604082019050919050565b60006020820190508181036000830152612af481612ab8565b9050919050565b7f4f776e61626c653a2063616c6c6572206973206e6f7420746865206f776e6572600082015250565b6000612b31602083611f11565b9150612b3c82612afb565b602082019050919050565b60006020820190508181036000830152612b6081612b24565b9050919050565b7f4552433732313a206d696e7420746f20746865207a65726f2061646472657373600082015250565b6000612b9d602083611f11565b9150612ba882612b67565b602082019050919050565b60006020820190508181036000830152612bcc81612b90565b9050919050565b7f4552433732313a20746f6b656e20616c7265616479206d696e74656400000000600082015250565b6000612c09601c83611f11565b9150612c1482612bd3565b602082019050919050565b60006020820190508181036000830152612c3881612bfc565b9050919050565b7f45524337323155524953746f726167653a2055524920736574206f66206e6f6e60008201527f6578697374656e7420746f6b656e000000000000000000000000000000000000602082015250565b6000612c9b602e83611f11565b9150612ca682612c3f565b604082019050919050565b60006020820190508181036000830152612cca81612c8e565b9050919050565b60008190508160005260206000209050919050565b60006020601f8301049050919050565b600082821b905092915050565b600060088302612d337fffffffffffffffffffffffffffffffffffffffffffffffffffffffffffffffff82612cf6565b612d3d8683612cf6565b95508019841693508086168417925050509392505050565b6000819050919050565b6000612d7a612d75612d7084611fb8565b612d55565b611fb8565b9050919050565b6000819050919050565b612d9483612d5f565b612da8612da082612d81565b848454612d03565b825550505050565b600090565b612dbd612db0565b612dc8818484612d8b565b505050565b5b81811015612dec57612de1600082612db5565b600181019050612dce565b5050565b601f821115612e3157612e0281612cd1565b612e0b84612ce6565b81016020851015612e1a578190505b612e2e612e2685612ce6565b830182612dcd565b50505b505050565b600082821c905092915050565b6000612e5460001984600802612e36565b1980831691505092915050565b6000612e6d8383612e43565b9150826002028217905092915050565b612e8682611f06565b67ffffffffffffffff811115612e9f57612e9e612140565b5b612ea9825461251d565b612eb4828285612df0565b600060209050601f831160018114612ee75760008415612ed5578287015190505b612edf8582612e61565b865550612f47565b601f198416612ef586612cd1565b60005b82811015612f1d57848901518255600182019150602085019450602081019050612ef8565b86831015612f3a5784890151612f36601f891682612e43565b8355505b6001600288020188555050505b505050505050565b7f4552433732313a20617070726f766520746f2063616c6c657200000000000000600082015250565b6000612f85601983611f11565b9150612f9082612f4f565b602082019050919050565b60006020820190508181036000830152612fb481612f78565b9050919050565b7f4552433732313a207472616e7366657220746f206e6f6e20455243373231526560008201527f63656976657220696d706c656d656e7465720000000000000000000000000000602082015250565b6000613017603283611f11565b915061302282612fbb565b604082019050919050565b600060208201905081810360008301526130468161300a565b9050919050565b600081519050919050565b600082825260208201905092915050565b60006130748261304d565b61307e8185613058565b935061308e818560208601611f22565b61309781611f4c565b840191505092915050565b60006080820190506130b7600083018761204d565b6130c4602083018661204d565b6130d160408301856122c7565b81810360608301526130e38184613069565b905095945050505050565b6000815190506130fd81611e77565b92915050565b60006020828403121561311957613118611e41565b5b6000613127848285016130ee565b91505092915050565b7f4e487b7100000000000000000000000000000000000000000000000000000000600052601260045260246000fdfea264697066735822122020744fc21ddd04937b1d548067222edae25571f363ca254e431f1d826ea1c70664736f6c63430008140033",
  "linkReferences": {},
  "deployedLinkReferences": {}
}